{
  "contractName": "MersenneTwister",
  "abi": [
    {
      "constant": false,
      "inputs": [
        {
          "name": "seed",
          "type": "uint256"
        }
      ],
      "name": "seed_mt",
      "outputs": [],
      "payable": false,
      "stateMutability": "nonpayable",
      "type": "function"
    },
    {
      "constant": false,
      "inputs": [],
      "name": "extract_number",
      "outputs": [
        {
          "name": "",
          "type": "uint256"
        }
      ],
      "payable": false,
      "stateMutability": "nonpayable",
      "type": "function"
    }
  ],
  "bytecode": "0x60806040526102716102705534801561001757600080fd5b506102c5806100276000396000f30060806040526004361061004b5763ffffffff7c0100000000000000000000000000000000000000000000000000000000600035041663814c4a0e8114610050578063a1af98881461006a575b600080fd5b34801561005c57600080fd5b50610068600435610091565b005b34801561007657600080fd5b5061007f610122565b60408051918252519081900360200190f35b6102708055600081905560015b61027081101561011e5763ffffffff81601e60007fffffffffffffffffffffffffffffffffffffffffffffffffffffffffffffffff830161027081106100e057fe5b01549060020a9004600060018503610270811015156100fb57fe5b015418636c078965020116600082610270811061011457fe5b015560010161009e565b5050565b60008061027080541015156101ab57610270805411156101a357604080517f08c379a000000000000000000000000000000000000000000000000000000000815260206004820152601b60248201527f47656e657261746f7220776173206e6576657220736565646564210000000000604482015290519081900360640190fd5b6101ab6101ff565b610270805460009181106101bb57fe5b015461027080546001019055620400006180006080610800840463ffffffff908116909418908102639d2c5680161890810263efc600001618908104181692915050565b600080805b61027083101561028e57637fffffff60006102706001860106610270811061022857fe5b0154166380000000600085610270811061023e57fe5b0154160191505060028104601482061561025957639908b0df185b80600061027061018d860106610270811061027057fe5b015418600084610270811061028157fe5b0155600190920191610204565b5050600061027055505600a165627a7a723058208ab2cf58a817514b96db7c805e385b4e18e14d6341f6124395973892b4baf14e0029",
  "source": "pragma solidity ^0.4.23;\n\n// Solidity implementation of the Mersenne Twister, the most commonly pseudo-random number generator\n\ncontract MersenneTwister {\n\n  // Set constant coefficients for MT19937-32 as defined here:\n  // https://en.wikipedia.org/wiki/Mersenne_Twister\n  uint constant w = 32;\n  uint constant n = 624;\n  uint constant m = 397;\n  uint constant r = 31;\n  uint constant a = 0x9908B0DF;\n  uint constant u = 11;\n  uint constant d = 0xFFFFFFFF;\n  uint constant s = 7;\n  uint constant b = 0x9D2C5680;\n  uint constant t = 15;\n  uint constant c = 0xEFC60000;\n  uint constant l = 18;\n  uint constant f = 1812433253;\n\n  // Variables to store the state of the generator\n  uint[n] MT;\n  uint index = n+1;\n  uint constant lower_mask = (1 << r) - 1;\n  uint constant upper_mask = (~lower_mask) & ((1 << w) - 1);\n\n  // @dev: Initializes the generator with a particular seed_mt\n  //\n  // @param: seed, initial value to start generator with\n  function seed_mt(uint seed) public {\n      index = n;\n      MT[0] = seed;\n      for(uint i = 1; i < n; i++){\n        MT[i] = (f * (MT[i-1] ^ (MT[i-1] >> (w-2))) + i) & ((1 << w) - 1);\n      }\n  }\n\n  // @dev: Extract tempered valued based on MT[index]\n  function extract_number() public returns (uint) {\n    if(index >= n) {\n      if(index > n){\n        revert(\"Generator was never seeded!\");\n      }\n      twist();\n    }\n\n    uint y = MT[index];\n    y = y ^ ((y >> u) & d);\n    y = y ^ ((y << s) & b);\n    y = y ^ ((y << t) & c);\n    y = y ^ (y >> l);\n\n    index++;\n    return y & ((1 << w) - 1);\n\n  }\n\n  // @dev: Generate the next n values from the series x_i\n  function twist() internal {\n    for(uint i = 0; i < n; i++){\n      uint x = (MT[i] & upper_mask) + (MT[(i+1) % n] & lower_mask);\n      uint xA = x >> 1;\n      if((x % 20 != 0)){\n        xA = xA ^ a;\n      }\n      MT[i] = MT[(i + m) % n] ^ xA;\n    }\n    index = 0;\n  }\n\n}\n",
  "sourcePath": "/home/mikerah/Documents/Projects/Ethereum-Standardized-Random-Beacon-Project/contracts/MersenneTwister.sol",
  "compiler": {
    "name": "solc",
    "version": "0.4.24+commit.e67f0147.Emscripten.clang"
  },
  "schemaVersion": "2.0.1",
  "updatedAt": "2018-07-23T16:18:17.125Z"
}