{
  "contractName": "MersenneTwiser",
  "abi": [
    {
      "constant": false,
      "inputs": [
        {
          "name": "seed",
          "type": "uint256"
        }
      ],
      "name": "seed_mt",
      "outputs": [],
      "payable": false,
      "stateMutability": "nonpayable",
      "type": "function"
    },
    {
      "constant": false,
      "inputs": [],
      "name": "extract_number",
      "outputs": [
        {
          "name": "",
          "type": "uint256"
        }
      ],
      "payable": false,
      "stateMutability": "nonpayable",
      "type": "function"
    }
  ],
  "bytecode": "0x60806040526001610270016102705534801561001a57600080fd5b5061037a8061002a6000396000f30060806040526004361061004c576000357c0100000000000000000000000000000000000000000000000000000000900463ffffffff168063814c4a0e14610051578063a1af98881461007e575b600080fd5b34801561005d57600080fd5b5061007c600480360381019080803590602001909291905050506100a9565b005b34801561008a57600080fd5b50610093610149565b6040518082815260200191505060405180910390f35b6000610270808190555081600080610270811015156100c457fe5b0181905550600190505b610270811015610145576001602060019060020a0203816002602003600060018503610270811015156100fd57fe5b01549060020a90046000600185036102708110151561011857fe5b015418636c0789650201166000826102708110151561013357fe5b018190555080806001019150506100ce565b5050565b60008061027080541015156101da57610270805411156101d1576040517f08c379a000000000000000000000000000000000000000000000000000000000815260040180806020018281038252601b8152602001807f47656e657261746f7220776173206e657665722073656564656421000000000081525060200191505060405180910390fd5b6101d961025c565b5b600061027054610270811015156101ed57fe5b0154905063ffffffff600b829060020a90041681189050639d2c56806007829060020a02168118905063efc60000600f829060020a0216811890506012819060020a900481189050610270600081548092919060010191905055506001602060019060020a0203811691505090565b60008060008092505b610270831015610340576001601f60019060020a020360006102706001860181151561028d57fe5b066102708110151561029b57fe5b0154166001602060019060020a02036001601f60019060020a02031916600085610270811015156102c857fe5b0154160191506001829060020a9004905060006014838115156102e757fe5b061415156102f957639908b0df811890505b80600061027061018d860181151561030d57fe5b066102708110151561031b57fe5b0154186000846102708110151561032e57fe5b01819055508280600101935050610265565b6000610270819055505050505600a165627a7a7230582019c25e976f3a25e321da0ee6958ddf9966b141407a83ddf9d9f3d00bec92ceee0029",
  "source": "pragma solidity ^0.4.23;\n\n// Solidity implementation of the Mersenne Twister, the most commonly pseudo-random number generator\n\ncontract MersenneTwiser {\n\n  // Set constant coefficients for MT19937-32 as defined here:\n  // https://en.wikipedia.org/wiki/Mersenne_Twister\n  uint constant w = 32;\n  uint constant n = 624;\n  uint constant m = 397;\n  uint constant r = 31;\n  uint constant a = 0x9908B0DF;\n  uint constant u = 11;\n  uint constant d = 0xFFFFFFFF;\n  uint constant s = 7;\n  uint constant b = 0x9D2C5680;\n  uint constant t = 15;\n  uint constant c = 0xEFC60000;\n  uint constant l = 18;\n  uint constant f = 1812433253;\n\n  // Variables to store the state of the generator\n  uint[n] MT;\n  uint index = n+1;\n  uint constant lower_mask = (1 << r) - 1;\n  uint constant upper_mask = (~lower_mask) & ((1 << w) - 1);\n\n  // @dev: Initializes the generator with a particular seed_mt\n  //\n  // @param: seed, initial value to start generator with\n  function seed_mt(uint seed) public {\n      index = n;\n      MT[0] = seed;\n      for(uint i = 1; i < n; i++){\n        MT[i] = (f * (MT[i-1] ^ (MT[i-1] >> (w-2))) + i) & ((1 << w) - 1);\n      }\n  }\n\n  // @dev: Extract tempered valued based on MT[index]\n  function extract_number() public returns (uint) {\n    if(index >= n) {\n      if(index > n){\n        revert(\"Generator was never seeded!\");\n      }\n      twist();\n    }\n\n    uint y = MT[index];\n    y = y ^ ((y >> u) & d);\n    y = y ^ ((y << s) & b);\n    y = y ^ ((y << t) & c);\n    y = y ^ (y >> l);\n\n    index++;\n    return y & ((1 << w) - 1);\n\n  }\n\n  // @dev: Generate the next n values from the series x_i\n  function twist() internal {\n    for(uint i = 0; i < n; i++){\n      uint x = (MT[i] & upper_mask) + (MT[(i+1) % n] & lower_mask);\n      uint xA = x >> 1;\n      if((x % 20 != 0)){\n        xA = xA ^ a;\n      }\n      MT[i] = MT[(i + m) % n] ^ xA;\n    }\n    index = 0;\n  }\n\n\n\n\n}\n",
  "sourcePath": "/home/mikerah/Documents/Projects/Ethereum-Standardized-Random-Beacon-Project/contracts/MersenneTwister.sol",
  "compiler": {
    "name": "solc",
    "version": "0.4.24+commit.e67f0147.Emscripten.clang"
  },
  "schemaVersion": "2.0.1",
  "updatedAt": "2018-07-01T04:20:38.163Z"
}